:1018000012C019C018C017C016C015C014C013C02C
:1018100012C011C010C00FC00EC00DC00CC00BC054
:101820000AC009C008C011241FBECFE5D4E0DEBF46
:10183000CDBFCBD0C9C2E4CF86E880BD83E389B9F0
:1018400010BC82E08BB988E18AB908955D9BFECF18
:101850008CB908955F9BFECF8CB108950F931F93B1
:10186000DF93CF93CDB7DEB7C054D0400FB6F89416
:10187000DEBF0FBECDBF8C01DA01653461F5BE015C
:101880006F5F7F4FAB019B01280F391F06C05F9B25
:10189000FECF8CB1FA018193AF0142175307B9F71C
:1018A00007B600FCFDCF13C02D913C9111972EBBC4
:1018B0003FBBFB0180818DBBE29AE19AE199FECFAB
:1018C0002F5F3F4F11963C932E936F5F7F4F6417AE
:1018D000750751F739C0663411F08FE336C06D914A
:1018E0007C911197660F771F11967C936E9391E010
:1018F0005F9BFECF2CB15F9BFECF8CB130E0ED91B2
:10190000FC911197582F40E0242B352B090190931F
:101910005700E89511249F012E5F3F4F11963C938D
:101920002E930250104021F785E0FB018093570071
:10193000E89507B600FCFDCF81E180935700E8955C
:10194000369527952D933C938DE0C05CDF4F0FB605
:10195000F894DEBF0FBECDBFCF91DF911F910F91E5
:101960000895DA016534C1F44D915C911197BC0181
:101970009A012EBB3FBBE09AEDB35D9BFECFECB965
:10198000615070402F5F3F4F6115710591F7480F0F
:10199000591F4D935C9308956634B1F4ED91FC9119
:1019A0001197EE0FFF1F24915D9BFECF2CB931964E
:1019B000249131975D9BFECF2CB93296029799F70F
:1019C000F695E795ED93FC9308952F923F924F92F1
:1019D0005F926F927F928F929F92AF92BF92CF92BF
:1019E000DF92EF92FF920F931F93DF93CF9300D07C
:1019F00000D0CDB7DEB7C39A86E880BD83E389B94E
:101A000010BC82E08BB988E18AB9B399BCC121B31B
:101A10002C8382B38B83889A909A00E010E0FDE0DB
:101A20007F2E2E010894411C511CE9E06E2E71E0BE
:101A3000272E312C5F9BFECF9CB1913621F45D9B0C
:101A4000FECFE9E548C1913471F45F9BFECF9CB1B4
:101A50005F9BFECF8CB15D9BFECF992E882490E0DA
:101A6000882999298FC09536B9F41A821982E0E045
:101A7000F0E009C007B600FCFDCF23E0209357003B
:101A8000E895E05CFF4F88E1E030F80798F3FA83CF
:101A9000E9835D9BFECF36C1923661F45D9BFECF3C
:101AA000E9E5ECB95D9BFECF1CB85D9BFECFF0E491
:101AB000FCB9C0CF9234A9F45F9BFECF2CB15F9BE1
:101AC000FECF8CB1F22EEE24082F10E00E291F2934
:101AD0005F9BFECF6CB1C801A201C0DE5D9BFECF53
:101AE00050C1973699F45F9BFECF2CB15F9BFECF20
:101AF0008CB1D22ECC24082F10E00C291D295F9B1D
:101B0000FECF6CB1C801A2012CDF94CF9235B1F4A5
:101B100007B600FCFDCF21E120935700E8958981AD
:101B20009A81FC01EE0FFF1F3196249131975D9B46
:101B3000FECF2CB924915D9BFECF62C0933641F459
:101B40005F9BFECF8CB15D9BFECF082F10E0DAC00B
:101B50009334D9F45F9BFECF8CB1B82EAA240A2906
:101B60001B2907B600FCFDCF89819A81FC01EE0F8D
:101B7000FF1F21E0080120935700E89511245D9B89
:101B8000FECF01969A838983BDC09D36B9F4E98161
:101B9000FA818CE0E030F80728F05D9BFECF8FE300
:101BA0008CB909C007B600FCFDCFEE0FFF1F85E022
:101BB00080935700E8955D9BFECFA4C09434B1F4A8
:101BC00007B600FCFDCF29813A812EBB3FBB5F9B4E
:101BD000FECF8CB18DBBE29AE19AE199FECF5D9B7D
:101BE000FECF2F5F3F4F3A8329838CC0943669F430
:101BF00089819A818EBB9FBBE09A2DB35D9BFECFFE
:101C00002CB901969A83898315CF9C3679F407B64F
:101C100000FCFDCF5F9BFECF8CB1E1E0F0E0082E31
:101C200060925700E8955D9BFECF6CC0923751F4EF
:101C300007B600FCFDCFF1016092570084915D9BD7
:101C4000FECF9FC0963469F487B790E0FC01E17045
:101C5000F07080FDF9CF6092570084915D9BFECFBC
:101C600090C09E3459F407B600FCFDCFE3E0F0E0ED
:101C70006092570084915D9BFECF83C0913559F4EB
:101C800007B600FCFDCFE2E0F0E0609257008491DF
:101C90005D9BFECF76C0903511F09C3419F45D9BAE
:101CA000FECF30C0953491F407B600FCFDCFF1E1D2
:101CB000F0935700E8955D9BFECF7CB82C8121BB4B
:101CC0008B8182BBE0E0F0E00995B4CE903729F437
:101CD0005D9BFECFE3E5ECB9ADCE943741F45D9B5F
:101CE000FECFF7E7FCB95D9BFECF1CB8A3CE892FD2
:101CF0008857823010F0943539F45F9BFECF8CB159
:101D00005D9BFECF7CB896CE9335E1F45D9BFECF14
:101D100021E42CB95D9BFECF86E58CB95D9BFECF9F
:101D2000E2E5ECB95D9BFECFF2E4FCB95D9BFECF32
:101D30002FE42CB95D9BFECF8FE48CB95D9BFECF69
:101D4000E4E5C9CF963549F45D9BFECFF1E3FCB9DC
:101D50005D9BFECF25E32CB96DCE933761F45D9B7F
:101D6000FECF87E08CB95D9BFECFE3E9ECB95D9BCC
:101D7000FECF8EE106C09B3109F45CCE5D9BFECFA9
:101D80008FE38CB957CE07B600FCFDCF81E180937D
:101D90005700E895E0E0F0E009950F900F900F9064
:101DA0000F90CF91DF911F910F91FF90EF90DF90F7
:101DB000CF90BF90AF909F908F907F906F905F90EB
:0C1DC0004F903F902F900895F894FFCFB3
:0400000300001800E1
:00000001FF
