:1000000019C033C032C031C056C2C0C22EC02DC0CC
:100010002CC02BC02AC029C028C027C026C025C09C
:1000200024C023C022C021C020C01FC01EC01DC0CC
:1000300069C41BC011241FBECFEFD2E0DEBFCDBF0D
:1000400011E0A0E0B1E0E6EEFAE002C005900D920A
:10005000AA30B107D9F711E0AAE0B1E001C01D92C2
:10006000A833B107E1F7FDD23CC5CACFCF93DF93E8
:10007000CDB7DEB7F89481E0DF91CF910895CF93AB
:10008000DF9300D0CDB7DEB79A83898378940F9041
:100090000F90DF91CF910895CF93DF9300D0CDB72C
:1000A000DEB79A8389838FE590E029813A81F9014F
:1000B0002081FC0120830F900F90DF91CF91089554
:1000C0000F931F93CF93DF9300D000D0CDB7DEB74F
:1000D0008B836C838B819C81892708E01CE8869543
:1000E00008F481270A95D9F78B8309831A838B81BA
:1000F0000F900F900F900F90DF91CF911F910F9164
:100100000895CF93DF931F92CDB7DEB7898385E241
:1001100090E023E230E0F9012081322F387F2981FD
:100120002695269526952770232BFC0120838BE2AC
:1001300090E029E230E0F9012081422F4F712981BE
:10014000222F30E0220F331F22953295307F322745
:10015000207F3227242BFC0120830F90DF91CF9149
:100160000895CF93DF931F92CDB7DEB7898389813E
:10017000880F0ED30F90DF91CF910895CF93DF9327
:100180001F92CDB7DEB78983898188231CF48981CA
:1001900086958983698180E090E095D48981E1DF4B
:1001A0000F90DF91CF910895CF93DF93CDB7DEB756
:1001B00080E090E080D4DF91CF910895CF93DF93DA
:1001C000CDB7DEB72A970FB6F894DEBF0FBECDBF0E
:1001D0006B837C838D839E832F83388749875A87DF
:1001E0008FE590E0FC0180818A8340DF898319C01C
:1001F0008B819C81AD81BE818093200190932101F0
:10020000A0932201B09323018F819885A985BA8597
:100210008093240190932501A0932601B093270198
:1002200019828981882321F7CE01029635DF2A962B
:100230000FB6F894DEBF0FBECDBFDF91CF9108950A
:10024000CF93DF93CDB7DEB788E290E028E230E0CD
:10025000F90120812360FC01208387E290E027E2FE
:1002600030E0F90120812C7FFC0120838BE290E0BB
:100270002BE230E0F90120812360FC0120838AE237
:1002800090E02AE230E0F90120812C7FFC012083FC
:10029000000086E290E0FC018081837080931E0163
:1002A00089E290E0FC018081837080931F0188E6E1
:1002B00090E026E0FC0120838CE690E023E0FC0146
:1002C00020838DE690E023E0FC012083DF91CF9135
:1002D0000895CF93DF93CDB7DEB729970FB6F89483
:1002E000DEBF0FBECDBF89871886C0DE89832AC0D6
:1002F0008091200190912101A0912201B0912301D0
:100300002985222F30E004C0B695A795979587954B
:100310002A95D2F79D838C838091240190912501A9
:10032000A0912601B09127012985222F30E0022ECD
:1003300004C0B695A795979587950A94D2F79F83A1
:100340008E8319828981882399F6CE01089697DEDB
:100350008C81809328018D81809329018E818093E7
:100360002A018F8180932B018E81CBDE1A821B8222
:100370000EC08B81882F90E0885D9E4FFC018081AC
:10038000682F8A819DDE8A838B818F5F8B838B812F
:10039000843078F38A8180932C0165E088E291E0D3
:1003A00023D229960FB6F894DEBF0FBECDBFDF91E2
:1003B000CF910895CF93DF93CDB7DEB72D970FB6CA
:1003C000F894DEBF0FBECDBF8D871C864FDE8983BC
:1003D0002EC08091200190912101A0912201B09125
:1003E00023012D85222F30E004C0B695A79597955F
:1003F00087952A95D2F78C839D83AE83BF838091A6
:10040000240190912501A0912601B09127012D850D
:10041000222F30E0022E04C0B695A79597958795B8
:100420000A94D2F788879987AA87BB87198289811E
:10043000882379F6CE010C9622DE8C8180932801E8
:100440008D81809329018E8180932A018F818093F1
:100450002B01888580932C01898580932D018A85C5
:1004600080932E018B8580932F0188854ADE1A8226
:100470001B820EC08B81882F90E0885D9E4FFC010F
:100480008081682F8A811CDE8A838B818F5F8B83BA
:100490008B81883078F38A818093300169E088E22B
:1004A00091E0A2D12D960FB6F894DEBF0FBECDBF5E
:1004B000DF91CF91089578941F920F9200905F0082
:1004C0000F9211248F939F93AF93BF93EF93FF935A
:1004D000CF93DF931F92CDB7DEB786E290E0FC01A9
:1004E00080818370898380911E01882F90E0880F1E
:1004F000991F8F5F9E4FFC01908189819817A1F40D
:100500008091200190912101A0912201B0912301BD
:100510000196A11DB11D8093200190932101A0930C
:100520002201B093230120C080911E01882F90E00A
:10053000880F991F80509F4FFC01908189819817E7
:1005400099F48091200190912101A0912201B09114
:1005500023010197A109B109809320019093210102
:10056000A0932201B0932301898180931E010F90F3
:10057000DF91CF91FF91EF91BF91AF919F918F91BB
:100580000F9000925F000F901F90189578941F9223
:100590000F9200905F000F9211248F939F93AF935F
:1005A000BF93EF93FF93CF93DF931F92CDB7DEB747
:1005B00089E290E0FC0180818370898380911F0132
:1005C000882F90E0880F991F80509F4FFC019081E9
:1005D00089819817A1F48091240190912501A0911F
:1005E0002601B09127010196A11DB11D8093240120
:1005F00090932501A0932601B093270120C08091FC
:100600001F01882F90E0880F991F8F5F9E4FFC017C
:1006100090818981981799F4809124019091250106
:10062000A0912601B09127010197A109B1098093FA
:10063000240190932501A0932601B093270189817D
:1006400080931F010F90DF91CF91FF91EF91BF91A8
:10065000AF919F918F910F9000925F000F901F902C
:100660001895CF93DF93CDB7DEB72A970FB6F894DE
:10067000DEBF0FBECDBF2FEF3FE740E050E06FEF92
:100680007FE780E090E09ADD20E030E0A90160E0C3
:1006900070E0CB0193DD8AE290E02AE230E0F901DC
:1006A0002081206EFC01208384E290E024E230E08F
:1006B000F90120812760FC0120838AE022DDC0DD72
:1006C00080E3898389814DDD7894CBD077D08823EE
:1006D00009F05CC080910A018270882309F456C039
:1006E00061E088E291E0D4D080912801882F90E0E9
:1006F000807C99278034910529F4809128018F739B
:10070000E8DD44C080912801882F90E0807C992703
:100710008038910529F4809128018F734BDE36C013
:1007200080912801882F90E08230910571F083300C
:10073000910509F18130910541F586E0E2DCCE01B9
:10074000029661E0A5D08A8119DD87E0DADCCE016E
:10075000039664E09DD0CE01079664E099D02F8186
:10076000388549855A858B819C81AD81BE81BC01CC
:10077000CD0124DD0BC088E0C4DC20E030E0A9011D
:1007800060E070E0CB011ADD01C0000000009ECFE8
:10079000CF93DF931F92CDB7DEB789838AEB90E0CA
:1007A0002981FC0120838CEB90E024E0FC01208374
:1007B00010921C010F90DF91CF910895CF93DF939A
:1007C000CDB7DEB780911C01DF91CF910895CF9313
:1007D000DF93CDB7DEB70000F1DF8823E9F7809122
:1007E0000801DF91CF910895CF93DF9300D000D01F
:1007F000CDB7DEB79B838A836C830000DFDF88235D
:10080000E9F78C8180931B01198213C08981882F9D
:1008100090E02981222F30E04A815B81240F351F2F
:10082000F9012081855F9E4FFC01208389818F5FC4
:10083000898399818C81981748F310920A0188EF77
:10084000809308018CEB90E025ECFC01208381E093
:1008500080931C010F900F900F900F90DF91CF911C
:100860000895CF93DF93CDB7DEB70000A7DF8823CD
:10087000E9F710920A0188EF809308018CEB90E071
:1008800025ECFC01208310921C01DF91CF9108958B
:10089000CF93DF9300D000D0CDB7DEB79B838A83A0
:1008A0006C8300008BDF8823E9F780910A01817057
:1008B0008823F1F0198213C08981882F90E02A8162
:1008C0003B81820F931F2981222F30E0255F3E4F0D
:1008D000F9012081FC01208389818F5F89839981BF
:1008E0008C81981748F380910A018D7F80930A01CB
:1008F00080910A0181700F900F900F900F90DF91FF
:10090000CF9108951F920F9200905F000F921124D3
:100910002F933F934F938F939F93EF93FF93CF9397
:10092000DF93CDB7DEB789EB90E0FC018081882FA3
:1009300090E0803A910509F473C0813A9105A4F4DE
:100940008036910509F43EC08136910524F4009764
:1009500009F46EC094C08038910509F443C088380A
:10096000910509F465C08BC0883B910509F46EC000
:10097000893B91052CF4883A910509F465C07FC044
:10098000803C910529F0883C910509F451C077C05D
:1009900090911D0180911B01981731F480910A01FB
:1009A000816080930A0106C089EB90E0FC018081A0
:1009B000809308018CEB90E025ECFC0120831092E1
:1009C0001C016AC080910A01826080930A01109222
:1009D0001D018CEB90E025ECFC01208381E08093ED
:1009E0001C015AC040911D01842F90E02BEB30E098
:1009F000F9012081855F9E4FFC012083842F8F5F4A
:100A000080931D0180910A01816080930A018CEB23
:100A100090E025ECFC01208381E080931C013CC028
:100A20008CEB90E025ECFC01208310921C0134C07B
:100A300089EB90E0FC018081809308018CEB90E0D1
:100A400020E9FC01208328C010921D018BEB90E06F
:100A500040911D01242F30E0255F3E4FF901208198
:100A6000FC012083842F8F5F80931D018CEB90E02D
:100A700025ECFC01208381E080931C010DC089EBF3
:100A800090E0FC018081809308018CEB90E025ECE4
:100A9000FC01208310921C01DF91CF91FF91EF9117
:100AA0009F918F914F913F912F910F9000925F00F6
:100AB0000F901F901895F999FECF1FBA81BDF89A33
:100AC000992780B50895262FF999FECF1FBA1FBA2E
:100AD00081BD20BD0FB6F894FA9AF99A0FBE01961F
:060AE0000895F894FFCF19
:0A0AE6000102030000030201F80002
:00000001FF
